:400000000040002011000000450200004502000080B500AF00F020F980B500AF104B12221A60182000F09AFB0E4B0F4A1A600F4BF02212011A600E4B0E4A1A600E4B8022DF
:4000400012061A600D4B00221A600D4B40221A600C4B00221A60024B11221A60BD4680BD3000104004010B4006000080000301400000014040FF008008010B4000010B405F
:40008000140101400C020B4080B582B000AF72B6FB1D00221A7023E0FB1D1A78131C5B009B185B002D4A9B183B603B681A78597809020A43997809040A43DB781B061343F2
:4000C000191C3B681A795B791B0213439BB2081C191C00F045F9FB1D1A78FB1D01321A70FB1D1B78012BD7D91D4BEE2212021A601C4B99221A601C4B992212041A601B4ABB
:400100001A4B1B78DBB202210B43DBB21370184A174B1B78DBB23C218B43DBB214210B43DBB21370114A114B1B78DBB216210B43DBB213700F4BD82212011A600E4B0222C0
:400140001A600E4B31221A600D4B02221A60FFF763FF00F015F9BD4602B080BDBC0A0000000302400007024030500F4000700F4001700F4008030440000704400807044012
:400180001807044010B5064C2378002B07D1054B002B02D0044800E000BF0123237010BD48010020000000008C09000008B5084B002B03D00748084900E000BF0748036866
:4001C000002B00D108BD064B002BFBD09847F9E7000000008C0900004C010020C80000200000000080B582B000AF00F0F5F8104B181C00F0D9F90F4B181C00F0D5F90E4B65
:40020000181C00F0D1F90D4B181C00F0CDF90C4B181C00F0C9F900F0A7F9031C7B607B68002B03D07B68181C00F012F9F3E7C04690090000E80900001C0A0000740A0000C6
:40024000B80A000080B500AF00F06CFB031C1B680C2B00D1FEE7FEE780B586B000AF224B7B61224B3B61204B7B6135E03B691B68FB603B695B68BB603B699B683B600023DC
:400280007B600CE0FB681A68BB681A60BB680433BB60FB680433FB607B6804337B607A683B689A42EED13B69DB683B6000237B6008E0BB6800221A60BB680433BB607B68F7
:4002C00004337B607A683B689A42F2D13B6910333B617B69013B7B617B69002BC6D100F027FBFFF77FFFFEE701000000380B000080B582B000AF154B144A126801218A43B7
:400300001A6000237B600FE07B68032B04D8104B7A689200D35800E00E4B0F4A796889008B507B6801337B607B682F2BECD9FFF7ABFE0A4B00221A60044B044A12680121DB
:400340000A431A60BD4602B080BDC04600001040000000004502000000000020C000002080B582B000AF786039607A683B68101C00211A1C00F002FBBD4602B080BDC046B3
:4003800080B500AF054B03221A60054B03221A60044B00221A60BD4680BDC0463000304030003140000E3F4080B500AF00F066F8BD4680BD80B500AF064B064A126880216A
:4003C00009060A431A6000F019F800F01BF8BD4680BDC0460000274080B500AF064B1B78002B04D1FFF7E0FF034B01221A70FFF7E1FFBD4680BDC0466401002080B500AF59
:40040000BD4680BD80B500AF00F098F8BD4680BD80B582B000AF00237B60044B1B687B607B68181CBD4602B080BDC0464003274080B582B000AF054B1B681F2213407B6006
:400440007B68181CBD4602B080BDC0460803274080B582B000AF7860C046064B1B681F221340082BF9D0044B7A681A60BD4602B080BDC046080227404002274080B500AF02
:400480001B4B1C4A1A601C4B00221A601B4B01221A601B4B1B4A1A601B4B07221A601B4B00221A601A4B01221A601A4B154A1A60194B00221A60194B04221A60184B0022D7
:4004C0001A60184B00221A60174B00221A60174B00221A60164B00221A60164B00221A60144B1B689AB2144B1A80BD4680BDC046000027400C000002400027404800274055
:400500000003274007000080040327401003274044002740000227400402274050002740880E2740C80E2740480F2740080F2740C80F2740880F27406601002080B500AF8D
:40054000064B064A1268F0218A4390210A431A60034B044A12881A60BD4680BD00070240880F27406601002080B582B000AF00237B60FFF75DFF031E03D0FFF749FF031C95
:400580007B60084B1A68D8239B00134005D000237B60044BD82292001A607B68181CBD4602B080BDC00F274080B584B000AF78600023FB6009E07A68FB68D3181B78181CED
:4005C000FFF746FFFB680133FB607A68FB68D3181B78002BEFD1BD4604B080BD90B587B000AF0023BB6000F043F9031E00D17FE0FC1D00F056F9031C237003233B61002357
:400600007B6112E03C4B1B68DBB21A1C3F2313403A497A698A181278934203D17B6903333B6105E07B6901337B617B692D2BE9D9334B1B681F22134007D1314B304A1268C5
:400640001F218A430C210A431A602E4B1B682E4A1340FB603B692D4A53438022D20194466344DB0B013B5B055B0DFA681343FB60FB68A02252031343FB603B69192B05D8C3
:40068000FB68FF2292051343FB6016E03B69204A944663441B78DBB2191C3B691A3B1D4AD35CCB18BB60BB68FF2B00D9FF23BB60BB689B05FA681343FB60124BFA681A6095
:4006C000154B1B683B60302000F0F2F8134B134A12688021C9050A431A60142000F0A4F80D4B3A681A60FB1D1B78181C00F0DDF8BD4607B090BDC0462CFF0B40C80A0000BA
:4007000034FF0B400800224000F800C040420F00CDF1FF0FF80A0000300010400000224080B500AF034B034A126803490A401A60BD4680BD00002240FFFFFFBF80B500AF8D
:40074000054B1A688023DB05134001D0012300E00023181CBD4680BD0000224090B58BB000AF786000237B622323FC1800F099F8031C2370FFF7E2FF031E03D001237B62A3
:40078000FFF7CEFF1B4B1A680823FB181A601A4B1A680823FB185A607B68033B174AD35C1A1C0823FB189A60154B1A680823FB18DA601823FB18134A1A600823FA181823E1
:4007C000FB185A60104B1822BA181A600F4B104A1A600D4B1B687B6A012B01D1FFF7FEFE2323FB181B78181C00F05FF8BD460BB090BDC04608010B4000010B40C80A000083
:4008000030001040B6EA000008001040040010401700008080B582B000AF021CFB1D1A7001BEBD4602B080BD80B582B000AF786009E00C4B1B68181C00F02AF87B680A4AA0
:40084000944663447B607A6880231B029A42F0D8064B1B687A685343181C00F019F8BD4602B080BDD80000200080FFFFD000002080B500AF044B1B68002B01DA012300E03D
:400880000023181CBD4680BD00002240000000000230800803D00138FDD1C046C046C0467047EFF3108072B6704780F31088704790B585B000AF78600F23FC18FFF7F1FFA2
:4008C000031C23707B68102B06D8154B144A126803218A431A601AE07B68202B08D8104B0F4A126803218A4301210A431A600EE07B68302B08D80A4B094A126803218A4378
:4009000002210A431A6002E00020FFF783FF0F23FB181B78181CFFF7C8FFBD4605B090BD30001040014B18687047C046400100200E4B70B500251E1C0D4CE41AA410A5424C
:4009400004D0AB00F35898470135F8E700F0E2F8084B00251E1C084CE41AA410A54204D0AB00F35898470135F8E770BD200B0000200B0000200B0000280B0000031C8218F8
:40098000934202D019700133FAE77047000000000D0A2A2A2A2A2A2A2A2A2A2A2A2A2A2A2A2A2A2A2A2A2A2A2A2A2A2A2A2A2A2A2A2A2A2A2A2A2A2A2A2A2A2A2A2A2A2A98
:4009C0002A2A2A2A2A2A2A2A2A2A2A2A2A2A2A2A2A2A2A2A2A2A2A2A2A2A2A2A2A2A2A2A2A2A2A2A2A0D0A0054686973206973205343425F55617274436F6D6D2064617462
:400A0000617368656574206578616D706C652070726F6A6563740D0A00000000496620796F75206172652061626C6520746F20726561642074686973207465787420746852
:400A400065207465726D696E616C20636F6E6E656374696F6E20697320636F6E6669677572656420636F72726563746C792E0D0A000000005374617274207472616E736D04
:400A8000697474696E6720746865206368617261637465727320746F2073656520616E206563686F20696E20746865207465726D696E616C2E0D0A000D0A000000300F4049
:400AC000000400400F400004030405060708090A0B0C0E0F101112131415161718191B1C1D1E1F2021222325262728292A2B2E2F3031323334350000EEDBC9B9AA9B8E82CF
:400B0000766B60564D443B332C241D17100A040043000000F8B5C046F8BC08BC9E467047AD010000F1020000F8B5C046F8BC08BC9E46704785010000480B0000C80000204C
:400B400080000000200000000000000000366E01C05D0000180000000000E02E010000000000000000000000000000000000000000000000000000000000000000000000EC
:400B8000100B00000000000000000000000000000000000000000000000000000000000000000000000000000000000000000000000000000000000000000000000000001A
:400BC000E0000020000000000000000000000000000000000000000000000000000000000000000000000000000000000000000000000000000000000000000000000000F5
:400C000000000000000000000000000000000000000000000000000000000000000000000000000000000000000000000000000000000000000000000000000000000000B4
:400C40000000000000000000000000000000000000000000000000000000000000000000000000000000000000000000000000000000000000000000000000000000000074
:400C80000000000000000000000000000000000000000000000000000000000000000000000000000000000000000000000000000000000000000000000000000000000034
:400CC00000000000000000000000000000000000000000000000000000000000000000000000000000000000000000000000000000000000000000000000000000000000F4
:020000040001F9
:0200000490303A
:0200000096E088
:0200000490402A
:4000000000000000000000000000000000000000000000000000000000000000000000000000000000000000000000000000000000000000000000000000000000000000C0
:400040000000000000000000000000000000000000000000000000000000000000000000000000000000000000000000000000000000000000000000000000000000000080
:0200000490501A
:0C0000000002112D11A100011130A88197
:0200000490600A
:0100000001FE
:00000001FF